:100000000C9434000C943E000C943E000C943E0082
:100010000C943E000C943E000C943E000C943E0068
:100020000C943E000C943E000C943E000C943E0058
:100030000C943E000C943E000C943E000C943E0048
:100040000C943E000C943E000C943E000C943E0038
:100050000C943E000C943E000C943E000C943E0028
:100060000C943E000C943E0011241FBECFEFD8E04C
:10007000DEBFCDBF0E9440000C9417060C94000018
:100080000F931F93CF93DF93CDB7DEB7CC5AD1092F
:100090000FB6F894DEBF0FBECDBF84E290E0DC0166
:1000A0002C9184E290E02260FC0120838AE290E0BF
:1000B000DC012C918AE290E02B7FFC0120838AE214
:1000C00090E0DC012C918AE290E02F7EFC012083FD
:1000D0008BE290E0DC012C918BE290E02460FC014B
:1000E00020838BE290E0DC012C918BE290E0206198
:1000F000FC01208380E890E0DC012C9180E890E016
:100100002260FC01208381E890E0DC012C9181E8F1
:1001100090E02860FC01208381E890E0DC012C91D4
:1001200081E890E02061FC01208381E890E0DC011F
:100130002C9181E890E02460FC01208380E890E02D
:10014000DC012C9180E890E02068FC01208383E2B0
:1001500094EFA0E0B0E08D839E83AF83B88786E8FC
:1001600090E02D813E81DC0111963C932E936D81B0
:100170007E818F8198850E94F30461966CAF7DAF7C
:100180008EAF9FAF61972DEC3CEC4CEC5DE361963C
:100190006CAD7DAD8EAD9FAD61970E948205A99635
:1001A0006CAF7DAF8EAF9FAFA997A9960CAD1DAD7B
:1001B0002EAD3FADA99765960CAF1DAF2EAF3FAFEB
:1001C000659765966CAD7DAD8EAD9FAD65970E94D0
:1001D000C404AD966CAF7DAF8EAF9FAFAD97AD96BB
:1001E0008CAD9DADAEADBFADAD9789879A87AB871E
:1001F000BC8789859A85AB85BC8589839A83AB83C7
:10020000BC8388E890E029813A81DC0111963C9317
:100210002E9389E290E0FC018081882F90E0847029
:100220009927892B09F09EC180E090E0A0EAB1E413
:100230008D8B9E8BAF8BB88F20E030E04AE755E482
:100240006D897E898F89988D0E948205E1966CAFB9
:100250007DAF8EAF9FAFE197E1960CAD1DAD2EAD9A
:100260003FADE197098F1A8F2B8F3C8F20E030E054
:1002700040E85FE3698D7A8D8B8D9C8D0E94BF0471
:1002800088232CF481E090E09E8F8D8F65C020E064
:100290003FEF4FE757E4698D7A8D8B8D9C8D0E94DF
:1002A0007D0518160CF046C020E030E040E251E435
:1002B0006D897E898F89988D0E948205E5966CAF45
:1002C0007DAF8EAF9FAFE597E5968CAD9DADAEADA2
:1002D000BFADE59769968CAF9DAFAEAFBFAF6997E5
:1002E00069966CAD7DAD8EAD9FAD69970E94C404DB
:1002F000E9966CAF7DAF8EAF9FAFE997E796AEAD55
:10030000BFADE797BE8FAD8F10C080E991E098A395
:100310008F8F8F8D98A10197F1F798A38F8F000091
:100320008D8D9E8D01979E8F8D8F8D8D9E8D892BAE
:1003300061F71DC0698D7A8D8B8D9C8D0E94C404E0
:10034000ED966CAF7DAF8EAF9FAFED97EB96EEADB8
:10035000FFADEB97FE8FED8F8D8D9E8D9AA389A3B8
:1003600089A19AA10197F1F79AA389A30000498175
:100370005A816B817C8189859A85AB85BC85840F88
:10038000951FA61FB71F8D879E87AF87B88B4D859A
:100390005E856F8578898D819E81AF81B88548178C
:1003A00059076A077B0788F088E890E02D813E8135
:1003B000DC0111963C932E938D819E81AF81B8858F
:1003C00089839A83AB83BC830FC088E890E02D8536
:1003D0003E85FC01318320838D859E85AF85B8895C
:1003E00089839A83AB83BC83000089E290E0DC01BF
:1003F0008C91882F90E084709927892BB1F380E04D
:1004000090E0A0EAB1E48BA39CA3ADA3BEA320E03F
:1004100030E04AE755E46BA17CA18DA19EA10E942A
:100420008205C358DF4F688379838A839B83CD57C6
:10043000D040C358DF4F088119812A813B81CD57B5
:10044000D0400FA318A729A73AA720E030E040E842
:100450005FE36FA178A589A59AA50E94BF048823B0
:100460002CF481E090E09CA78BA771C020E03FEFC7
:100470004FE757E46FA178A589A59AA50E947D054D
:1004800018160CF04EC020E030E040E251E46BA1C1
:100490007CA18DA19EA10E948205CF57DF4F68836A
:1004A00079838A839B83C158D040CF57DF4F88819F
:1004B0009981AA81BB81C158D0406D968CAF9DAF08
:1004C000AEAFBFAF6D976D966CAD7DAD8EAD9FAD90
:1004D0006D970E94C404CB57DF4F688379838A836A
:1004E0009B83C558D040CB57DF4FA881B981C558F1
:1004F000D040BCA7ABA710C080E991E09EA78DA714
:100500008DA59EA50197F1F79EA78DA700008BA54D
:100510009CA501979CA78BA78BA59CA5892B61F710
:1005200021C06FA178A589A59AA50E94C404C757C8
:10053000DF4F688379838A839B83C958D040C7572C
:10054000DF4FE881F981C958D040FCA7EBA78BA504
:100550009CA598AB8FA78FA598A90197F1F798ABA9
:100560008FA7000089E290E0DC018C91882F90E059
:1005700080719927892B09F04CCE80E090E0A0EAA9
:10058000B1E489AB9AABABABBCAB20E030E04AE75F
:1005900055E469A97AA98BA99CA90E948205C35731
:1005A000DF4F688379838A839B83CD58D040C357BC
:1005B000DF4F088119812A813B81CD58D0400DAB96
:1005C0001EAB2FAB38AF20E030E040E85FE36DA911
:1005D0007EA98FA998AD0E94BF0488232CF481E0E6
:1005E00090E09AAF89AF71C020E03FEF4FE757E44A
:1005F0006DA97EA98FA998AD0E947D0518160CF0F3
:100600004EC020E030E040E251E469A97AA98BA90C
:100610009CA90E948205CF56DF4F688379838A8325
:100620009B83C159D040CF56DF4F88819981AA81E1
:10063000BB81C159D040A1968CAF9DAFAEAFBFAFCB
:10064000A197A1966CAD7DAD8EAD9FADA1970E9497
:10065000C404CB56DF4F688379838A839B83C55953
:10066000D040CB56DF4FA881B981C559D040BAAF31
:10067000A9AF10C080E991E09CAF8BAF8BAD9CAD72
:100680000197F1F79CAF8BAF000089AD9AAD019750
:100690009AAF89AF89AD9AAD892B61F721C06DA959
:1006A0007EA98FA998AD0E94C404C756DF4F688306
:1006B00079838A839B83C959D040C756DF4FE8812D
:1006C000F981C959D040FAAFE9AF89AD9AAD9EAF73
:1006D0008DAF8DAD9EAD0197F1F79EAF8DAF000050
:1006E00049815A816B817C8189859A85AB85BC85DE
:1006F0008A019B01081B190B2A0B3B0BD901C8016E
:10070000898B9A8BAB8BBC8B49895A896B897C8985
:1007100089859A85AB85BC85481759076A077B0789
:1007200088F088E890E029893A89DC0111963C93A9
:100730002E9389899A89AB89BC8989839A83AB83F3
:10074000BC830FC088E890E029853A85FC0131839D
:10075000208389859A85AB85BC8589839A83AB8301
:10076000BC83000089E290E0DC018C91882F90E04E
:1007700080719927892BB1F39E01215C3F4F80E066
:1007800090E0A0EAB1E4F90180839183A283B3836E
:100790008E010D5B1F4FCE01CF9620E030E04AE77F
:1007A00055E4DC016D917D918D919C910E948205B3
:1007B000C356DF4F688379838A839B83CD59D040AA
:1007C000C356DF4F88819981AA81BB81CD59D04022
:1007D000F80180839183A283B383CE018D5B9F4F09
:1007E00020E030E040E85FE3DC016D917D918D9188
:1007F0009C910E94BF0488234CF4CE01895B9F4FDB
:1008000021E030E0FC01318320839DC0CE018D5B6F
:100810009F4F20E03FEF4FE757E4DC016D917D9162
:100820008D919C910E947D0518160CF06EC0CE0132
:10083000CF9620E030E040E251E4FC01608171811C
:10084000828193810E948205CF55DF4F688379832F
:100850008A839B83C15AD040CF55DF4F08811981CD
:100860002A813B81C15AD040A5960CAF1DAF2EAF57
:100870003FAFA5978E01095B1F4FA5966CAD7DAD6F
:100880008EAD9FADA5970E94C404CB55DF4F688302
:1008900079838A839B83C55AD040CB55DF4FE8814B
:1008A000F981C55AD040D801ED93FC9325C0CE0103
:1008B000875B9F4F20E931E0DC012D933C93CE0113
:1008C000875B9F4FFC01808191810197F1F79E0129
:1008D000275B3F4FD9018D939C930000CE01895B2C
:1008E0009F4F9E01295B3F4FF901208131812150AB
:1008F0003109DC012D933C93CE01895B9F4FFC01B4
:1009000080819181892B99F639C08E01095B1F4F37
:10091000CE018D5B9F4FDC016D917D918D919C91FE
:100920000E94C404C755DF4F688379838A839B8301
:10093000C95AD040C755DF4F28813981C95AD040A4
:10094000F80131832083CE01855B9F4F9E01295B97
:100950003F4FD9012D913C91FC0131832083CE0181
:10096000855B9F4FDC018D919C910197F1F79E0172
:10097000255B3F4FF9019183808300004ACC0E94A0
:10098000300508F481E008950E945C0588F09F57C7
:1009900098F0B92F9927B751B0F0E1F0660F771FA3
:1009A000881F991F1AF0BA95C9F714C0B13091F099
:1009B0000E947605B1E008950C947605672F782F94
:1009C0008827B85F39F0B93FCCF38695779567955E
:1009D000B395D9F73EF490958095709561957F4FCA
:1009E0008F4F9F4F0895E89409C097FB3EF4909570
:1009F0008095709561957F4F8F4F9F4F9923A9F0F8
:100A0000F92F96E9BB279395F69587957795679586
:100A1000B795F111F8CFFAF4BB0F11F460FF1BC0CA
:100A20006F5F7F4F8F4F9F4F16C0882311F096E95D
:100A300011C0772321F09EE8872F762F05C066230B
:100A400071F096E8862F70E060E02AF09A95660FC4
:100A5000771F881FDAF7880F9695879597F908957D
:100A6000990F0008550FAA0BE0E8FEEF16161706BF
:100A7000E807F907C0F012161306E407F50798F027
:100A8000621B730B840B950B39F40A2661F0232B40
:100A9000242B252B21F408950A2609F4A140A695BC
:100AA0008FEF811D811D089557FD9058440F551FEC
:100AB00059F05F3F71F04795880F97FB991F61F0E0
:100AC0009F3F79F087950895121613061406551F57
:100AD000F2CF4695F1DF08C0161617061806991FC3
:100AE000F1CF86957105610508940895E894BB27B8
:100AF00066277727CB0197F908950E94300508F4FF
:100B00008FEF08950E9495050C9406060E94F80543
:100B100038F00E94FF0520F0952311F00C94EF05AA
:100B20000C94F50511240C9477050E94540570F37C
:100B3000959FC1F3950F50E0551F629FF001729F82
:100B4000BB27F00DB11D639FAA27F00DB11DAA1F91
:100B5000649F6627B00DA11D661F829F2227B00DDE
:100B6000A11D621F739FB00DA11D621F839FA00D69
:100B7000611D221F749F3327A00D611D231F849FB9
:100B8000600D211D822F762F6A2F11249F57504010
:100B90009AF0F1F088234AF0EE0FFF1FBB1F661F8B
:100BA000771F881F91505040A9F79E3F510580F054
:100BB0000C94EF050C9477055F3FE4F3983ED4F373
:100BC000869577956795B795F795E7959F5FC1F7F8
:100BD000FE2B880F911D9695879597F9089597F9A3
:100BE0009F6780E870E060E008959FEF80EC0895D3
:100BF00000240A94161617061806090608950024FC
:100C00000A9412161306140605060895092E039475
:100C1000000C11F4882352F0BB0F40F4BF2B11F4E9
:100C200060FF04C06F5F7F4F8F4F9F4F0895F89410
:020C3000FFCFF4
:00000001FF
