:100000000C9434000C9448000C9446000C94460068
:100010000C9446000C9446000C9446000C94460048
:100020000C9446000C9446000C9446000C94460038
:100030000C9446000C9446000C9446000C94460028
:100040000C947C000C9446000C9446000C944600E2
:100050000C9446000C9446000C9446000C94460008
:100060000C9446000C94460011241FBECFEFD8E03C
:10007000DEBFCDBF21E0A0E0B1E001C01D92A13004
:10008000B207E1F70E94D2000C940E010C9400001C
:100090001F920F920FB60F9211242F938F939F935D
:1000A000EF93FF93CF93DF93CDB7DEB78DE390E06F
:1000B000FC0120818DE390E02E7FFC01208386E40B
:1000C00090E0FC0110821092000185E490E025E0B0
:1000D000FC0120838EE690E021E0FC0120830000FB
:1000E000DF91CF91FF91EF919F918F912F910F9081
:1000F0000FBE0F901F9018951F920F920FB60F9280
:1001000011242F933F938F939F93EF93FF93CF935C
:10011000DF93CDB7DEB7809100018F5F8093000140
:1001200080910001823080F185E490E0FC01108232
:100130008EE690E0FC01108289E290E0FC01808173
:10014000882F90E084709927892B51F485E290E004
:10015000FC01308185E290E021E02327FC0120832F
:100160008CE390E0FC0120818CE390E02160FC01B5
:1001700020838DE390E0FC0120818DE390E02160FD
:10018000FC012083109200010000DF91CF91FF91CC
:10019000EF919F918F913F912F910F900FBE0F90F4
:1001A0001F901895CF93DF93CDB7DEB784E290E030
:1001B000FC01208184E290E02160FC0120838AE23E
:1001C00090E0FC0120818AE290E02B7FFC012083FB
:1001D0008BE290E0FC0120818BE290E02460FC0146
:1001E000208389E690E0FC01208189E690E022608E
:1001F000FC01208389E690E0FC01208189E690E003
:100200002E7FFC0120838DE390E0FC0120818DE3B3
:1002100090E02160FC0120837894FFCFF894FFCF19
:00000001FF
