:100000000C9434000C9448000C9446000C94460068
:100010000C9446000C9446000C9446000C94460048
:100020000C9446000C9446000C9446000C94460038
:100030000C9446000C9446000C9446000C94460028
:100040000C9446000C9446000C9446000C94460018
:100050000C9446000C9446000C9446000C94460008
:100060000C9446000C94460011241FBECFEFD8E03C
:10007000DEBFCDBF21E0A0E0B1E001C01D92A13004
:10008000B207E1F70E945E000C9461020C9400003C
:100090001F920F920FB60F9211248F93CF93DF937D
:1000A000CDB7DEB781E0809300010000DF91CF91F2
:1000B0008F910F900FBE0F901F901895CF93DF93E5
:1000C000CDB7DEB7A2970FB6F894DEBF0FBECDBF97
:1000D00084E290E0DC012C9184E290E02160FC015C
:1000E00020838AE290E0DC012C918AE290E02B7F71
:1000F000FC0120838BE290E0DC012C918BE290E00C
:100100002460FC01208389E690E0DC012C9189E6E3
:1001100090E02260FC01208389E690E0DC012C91D4
:1001200089E690E02E7FFC0120838DE390E0DC01E6
:100130002C918DE390E02160FC0120838FE590E01D
:10014000DC012C918FE590E02068FC0120838091F8
:1001500000018823E1F380E090E0A8ECB2E4898319
:100160009A83AB83BC8320E030E04AE755E46981A1
:100170007A818B819C810E94CC016B8B7C8B8D8BD7
:100180009E8B8B899C89AD89BE898D839E83AF832D
:10019000B88720E030E040E85FE36D817E818F81A9
:1001A00098850E94460188232CF481E090E09A878C
:1001B000898754C020E03FEF4FE757E46D817E818F
:1001C0008F8198850E94C7011816D4F520E030E091
:1001D00040E251E469817A818B819C810E94CC014B
:1001E0006F8B788F898F9A8F8F89988DA98DBA8D13
:1001F0008F87988BA98BBA8B6F85788989899A8923
:100200000E944B016B8F7C8F8D8F9E8FAB8DBC8D31
:10021000BA87A98710C080E991E09C878B878B857E
:100220009C850197F1F79C878B87000089859A85CB
:1002300001979A87898789859A85892B61F719C0E3
:100240006D817E818F8198850E944B016F8F78A38D
:1002500089A39AA3EF8DF8A1FA87E98789859A8502
:100260009E878D878D859E850197F1F79E878D8767
:10027000000085E290E0DC013C9185E290E021E025
:100280002327FC0120831092000161CF0E947A0194
:1002900008F481E008950E94A60188F09F5798F025
:1002A000B92F9927B751B0F0E1F0660F771F881F7B
:1002B000991F1AF0BA95C9F714C0B13091F00E9495
:1002C000C001B1E008950C94C001672F782F8827F2
:1002D000B85F39F0B93FCCF3869577956795B395BC
:1002E000D9F73EF490958095709561957F4F8F4F2B
:1002F0009F4F0895990F0008550FAA0BE0E8FEEFF5
:1003000016161706E807F907C0F012161306E407D9
:10031000F50798F0621B730B840B950B39F40A26D2
:1003200061F0232B242B252B21F408950A2609F4B0
:10033000A140A6958FEF811D811D089557FD90580E
:10034000440F551F59F05F3F71F04795880F97FB99
:10035000991F61F09F3F79F0879508951216130653
:100360001406551FF2CF4695F1DF08C01616170682
:100370001806991FF1CF86957105610508940895B7
:10038000E894BB2766277727CB0197F908950E9449
:100390007A0108F48FEF08950E94DF010C94500257
:1003A0000E94420238F00E94490220F0952311F089
:1003B0000C9439020C943F0211240C94C1010E9448
:1003C0009E0170F3959FC1F3950F50E0551F629FFA
:1003D000F001729FBB27F00DB11D639FAA27F00D9E
:1003E000B11DAA1F649F6627B00DA11D661F829FC5
:1003F0002227B00DA11D621F739FB00DA11D621FAA
:10040000839FA00D611D221F749F3327A00D611DC6
:10041000231F849F600D211D822F762F6A2F1124A8
:100420009F5750409AF0F1F088234AF0EE0FFF1FDB
:10043000BB1F661F771F881F91505040A9F79E3F32
:10044000510580F00C9439020C94C1015F3FE4F334
:10045000983ED4F3869577956795B795F795E79588
:100460009F5FC1F7FE2B880F911D9695879597F991
:10047000089597F99F6780E870E060E008959FEF26
:1004800080EC089500240A9416161706180609062B
:10049000089500240A9412161306140605060895FA
:1004A000092E0394000C11F4882352F0BB0F40F482
:1004B000BF2B11F460FF04C06F5F7F4F8F4F9F4FC2
:0604C0000895F894FFCF3F
:00000001FF
